{
  "contractName": "Game",
  "abi": [
    {
      "constant": true,
      "inputs": [
        {
          "name": "",
          "type": "uint256"
        }
      ],
      "name": "fields",
      "outputs": [
        {
          "name": "",
          "type": "uint8"
        }
      ],
      "payable": false,
      "stateMutability": "view",
      "type": "function"
    },
    {
      "constant": true,
      "inputs": [],
      "name": "next",
      "outputs": [
        {
          "name": "",
          "type": "bool"
        }
      ],
      "payable": false,
      "stateMutability": "view",
      "type": "function"
    },
    {
      "constant": true,
      "inputs": [],
      "name": "playerX",
      "outputs": [
        {
          "name": "",
          "type": "address"
        }
      ],
      "payable": false,
      "stateMutability": "view",
      "type": "function"
    },
    {
      "constant": true,
      "inputs": [],
      "name": "ready",
      "outputs": [
        {
          "name": "",
          "type": "bool"
        }
      ],
      "payable": false,
      "stateMutability": "view",
      "type": "function"
    },
    {
      "constant": true,
      "inputs": [],
      "name": "owner",
      "outputs": [
        {
          "name": "",
          "type": "address"
        }
      ],
      "payable": false,
      "stateMutability": "view",
      "type": "function"
    },
    {
      "constant": true,
      "inputs": [],
      "name": "player0",
      "outputs": [
        {
          "name": "",
          "type": "address"
        }
      ],
      "payable": false,
      "stateMutability": "view",
      "type": "function"
    },
    {
      "inputs": [
        {
          "name": "_player1",
          "type": "address"
        },
        {
          "name": "_player2",
          "type": "address"
        },
        {
          "name": "_first",
          "type": "bool"
        }
      ],
      "payable": false,
      "stateMutability": "nonpayable",
      "type": "constructor"
    },
    {
      "constant": false,
      "inputs": [],
      "name": "confirmGame",
      "outputs": [],
      "payable": false,
      "stateMutability": "nonpayable",
      "type": "function"
    }
  ],
  "bytecode": "0x608060405234801561001057600080fd5b506040516060806108b6833981018060405281019080805190602001909291908051906020019092919080519060200190929190505050336000806101000a81548173ffffffffffffffffffffffffffffffffffffffff021916908373ffffffffffffffffffffffffffffffffffffffff1602179055508173ffffffffffffffffffffffffffffffffffffffff168373ffffffffffffffffffffffffffffffffffffffff16141515156100c257600080fd5b80600260156101000a81548160ff021916908315150217905550600260159054906101000a900460ff16156101785782600160006101000a81548173ffffffffffffffffffffffffffffffffffffffff021916908373ffffffffffffffffffffffffffffffffffffffff16021790555081600260006101000a81548173ffffffffffffffffffffffffffffffffffffffff021916908373ffffffffffffffffffffffffffffffffffffffff1602179055506101fb565b82600260006101000a81548173ffffffffffffffffffffffffffffffffffffffff021916908373ffffffffffffffffffffffffffffffffffffffff16021790555081600160006101000a81548173ffffffffffffffffffffffffffffffffffffffff021916908373ffffffffffffffffffffffffffffffffffffffff1602179055505b600160038060088110151561020c57fe5b602091828204019190066101000a81548160ff0219169083600281111561022f57fe5b0217905550505050610670806102466000396000f300608060405260043610610083576000357c0100000000000000000000000000000000000000000000000000000000900463ffffffff16806319137856146100885780633294717a146100d75780634c8fe526146100ee5780634cdea7d21461011d5780636defbf80146101745780638da5cb5b146101a3578063d42863ac146101fa575b600080fd5b34801561009457600080fd5b506100b360048036038101908080359060200190929190505050610251565b604051808260028111156100c357fe5b60ff16815260200191505060405180910390f35b3480156100e357600080fd5b506100ec61027a565b005b3480156100fa57600080fd5b506101036105ad565b604051808215151515815260200191505060405180910390f35b34801561012957600080fd5b506101326105c0565b604051808273ffffffffffffffffffffffffffffffffffffffff1673ffffffffffffffffffffffffffffffffffffffff16815260200191505060405180910390f35b34801561018057600080fd5b506101896105e6565b604051808215151515815260200191505060405180910390f35b3480156101af57600080fd5b506101b86105f9565b604051808273ffffffffffffffffffffffffffffffffffffffff1673ffffffffffffffffffffffffffffffffffffffff16815260200191505060405180910390f35b34801561020657600080fd5b5061020f61061e565b604051808273ffffffffffffffffffffffffffffffffffffffff1673ffffffffffffffffffffffffffffffffffffffff16815260200191505060405180910390f35b60038160088110151561026057fe5b60209182820401919006915054906101000a900460ff1681565b600260149054906101000a900460ff1615151561029657600080fd5b600260159054906101000a900460ff1680156103005750600073ffffffffffffffffffffffffffffffffffffffff16600260009054906101000a900473ffffffffffffffffffffffffffffffffffffffff1673ffffffffffffffffffffffffffffffffffffffff16145b156103a857600160009054906101000a900473ffffffffffffffffffffffffffffffffffffffff1673ffffffffffffffffffffffffffffffffffffffff163373ffffffffffffffffffffffffffffffffffffffff161415151561036257600080fd5b33600260006101000a81548173ffffffffffffffffffffffffffffffffffffffff021916908373ffffffffffffffffffffffffffffffffffffffff160217905550610590565b600260159054906101000a900460ff161580156104135750600073ffffffffffffffffffffffffffffffffffffffff16600160009054906101000a900473ffffffffffffffffffffffffffffffffffffffff1673ffffffffffffffffffffffffffffffffffffffff16145b156104bb57600260009054906101000a900473ffffffffffffffffffffffffffffffffffffffff1673ffffffffffffffffffffffffffffffffffffffff163373ffffffffffffffffffffffffffffffffffffffff161415151561047557600080fd5b33600160006101000a81548173ffffffffffffffffffffffffffffffffffffffff021916908373ffffffffffffffffffffffffffffffffffffffff16021790555061058f565b600260159054906101000a900460ff161561053157600260009054906101000a900473ffffffffffffffffffffffffffffffffffffffff1673ffffffffffffffffffffffffffffffffffffffff163373ffffffffffffffffffffffffffffffffffffffff1614151561052c57600080fd5b61058e565b600160009054906101000a900473ffffffffffffffffffffffffffffffffffffffff1673ffffffffffffffffffffffffffffffffffffffff163373ffffffffffffffffffffffffffffffffffffffff1614151561058d57600080fd5b5b5b5b6001600260146101000a81548160ff021916908315150217905550565b600260159054906101000a900460ff1681565b600160009054906101000a900473ffffffffffffffffffffffffffffffffffffffff1681565b600260149054906101000a900460ff1681565b6000809054906101000a900473ffffffffffffffffffffffffffffffffffffffff1681565b600260009054906101000a900473ffffffffffffffffffffffffffffffffffffffff16815600a165627a7a72305820d509e252fc327c0f1c7d79193f15e9f44e0ab5d9d293fd6e0bb634ff66d4b3830029",
  "source": "pragma solidity ^0.4.24; \n\nimport \"./Owned.sol\"; \n\n// TicTacToe\ncontract Game is Owned {\n\taddress public playerX; \n\taddress public player0; \n\tbool public ready; \n\tbool public next; \n\t\n\tenum FieldStatus { FieldEmpty, FieldX, Field0 }\n\t\n\tFieldStatus[8] public fields;\n\n\n\tconstructor(address _player1, address _player2, bool _first) public {\n\t\trequire(_player1 != _player2); \n\t\tnext = _first; \n\t\tif (next) {\n\t\t\tplayerX = _player1; \n\t\t\tplayer0 = _player2; \n\t\t}else {\n\t\t\tplayer0 = _player1; \n\t\t\tplayerX = _player2; \n\t\t}\n\n\t\tfields[3] = FieldStatus.FieldX;\n\t}\n\n\tfunction confirmGame()public {\n\t\trequire( ! ready); \n\t\tif (next && player0 == address(0)) {\n\t\t\trequire(msg.sender != playerX); \n\t\t\tplayer0 = msg.sender; \n\t\t} else if ( ! next && playerX == address(0)) {\n\t\t\trequire(msg.sender != player0); \n\t\t\tplayerX = msg.sender; \n\t\t} else if (next) {\n\t\t\trequire(msg.sender == player0); \n\t\t} else {\n\t\t\trequire(msg.sender == playerX); \n\t\t}\n\n\t\tready = true; \n\t}\n}",
  "sourcePath": "/home/nerjs/work/start_dapp/contracts/Game.sol",
  "compiler": {
    "name": "solc",
    "version": "0.4.24+commit.e67f0147.Emscripten.clang"
  },
  "schemaVersion": "2.0.1",
  "updatedAt": "2018-10-16T11:32:19.810Z"
}