{
  "contractName": "Test",
  "abi": [
    {
      "constant": true,
      "inputs": [],
      "name": "test",
      "outputs": [
        {
          "name": "",
          "type": "uint256"
        }
      ],
      "payable": false,
      "stateMutability": "view",
      "type": "function"
    },
    {
      "inputs": [],
      "payable": false,
      "stateMutability": "nonpayable",
      "type": "constructor"
    },
    {
      "constant": false,
      "inputs": [
        {
          "name": "t",
          "type": "uint8"
        }
      ],
      "name": "testError",
      "outputs": [],
      "payable": false,
      "stateMutability": "nonpayable",
      "type": "function"
    },
    {
      "constant": true,
      "inputs": [],
      "name": "testRequire",
      "outputs": [
        {
          "name": "",
          "type": "bool"
        }
      ],
      "payable": false,
      "stateMutability": "view",
      "type": "function"
    },
    {
      "constant": true,
      "inputs": [],
      "name": "testAssert",
      "outputs": [
        {
          "name": "",
          "type": "bool"
        }
      ],
      "payable": false,
      "stateMutability": "view",
      "type": "function"
    }
  ],
  "bytecode": "0x608060405234801561001057600080fd5b50600160008190555061026c806100286000396000f300608060405260043610610062576000357c0100000000000000000000000000000000000000000000000000000000900463ffffffff1680632b813bc014610067578063357815c4146100965780636f4b4c31146100c5578063f8a8fd6d146100f5575b600080fd5b34801561007357600080fd5b5061007c610120565b604051808215151515815260200191505060405180910390f35b3480156100a257600080fd5b506100ab610132565b604051808215151515815260200191505060405180910390f35b3480156100d157600080fd5b506100f3600480360381019080803560ff1690602001909291905050506101b0565b005b34801561010157600080fd5b5061010a61023a565b6040518082815260200191505060405180910390f35b600080151561012b57fe5b6001905090565b60008015156101a9576040517f08c379a000000000000000000000000000000000000000000000000000000000815260040180806020018281038252600c8152602001807f746573742072657175697265000000000000000000000000000000000000000081525060200191505060405180910390fd5b6001905090565b6000548160ff161415151561022d576040517f08c379a000000000000000000000000000000000000000000000000000000000815260040180806020018281038252600c8152602001807f6e6f74207465737420766172000000000000000000000000000000000000000081525060200191505060405180910390fd5b8060ff1660008190555050565b600054815600a165627a7a723058204eaa1595e4e20ff6aa54d189b201b06080ceedefd8f6490d842d2e4f4593eb3e0029",
  "source": "pragma solidity ^0.4.2;\n\n\ncontract Test {\n    uint public test;\n    constructor() public {\n        test = 1;\n    }\n\n    function testError(uint8 t) public {\n        require(t != test, \"not test var\");\n        test = t;\n    }\n\n    function testRequire() view public returns(bool) {\n        require(false, \"test require\");\n        return true;\n    }\n\n    function testAssert() view public returns(bool) {\n        assert(false);\n        return true;\n    }\n}",
  "sourcePath": "/home/nerjs/work/start_dapp/contracts/Test.sol",
  "compiler": {
    "name": "solc",
    "version": "0.4.24+commit.e67f0147.Emscripten.clang"
  },
  "schemaVersion": "2.0.1",
  "updatedAt": "2018-10-09T15:21:24.448Z"
}